S018000044656275672F546F67676C655F4C45442E7372656360
S113000000060020E9040000F9040000F9040000DF
S113001000000000000000000000000000000000DC
S1130020000000000000000000000000F9040000CF
S11300300000000000000000F9040000F9040000C2
S1130040F9040000F9040000F9040000F9040000B8
S1130050F9040000F9040000F9040000F9040000A8
S1130060F9040000F9040000F9040000F904000098
S11300707D050000F9040000F9040000F904000003
S1130080F9040000F9040000F9040000F904000078
S1130090F9040000F9040000F9040000F904000068
S11300A0F9040000F9040000F9040000F904000058
S11300B0F9040000F9040000F9040000F904000048
S1130400FFFFFFFFFFFFFFFFFFFFFFFFFE3DFFFFBB
S113041010B5064C2378002B07D1054B002B02D0D6
S1130420044800E000BF0123237010BD64FEFF1FD9
S113043000000000DC2C000008B5084B002B03D0A2
S11304400748084900E000BF07480368002B03D0B1
S1130450064B002B00D0984708BDC04600000000A2
S1130460DC2C000068FEFF1F60FEFF1F0000000080
S1130470164B002B00D1144B9D46402292029A1A2F
S1130480924600218B460F461348144A121A02F072
S1130490C9FB0F4B002B00D098470E4B002B00D00C
S11304A098470020002104000D000D48002802D0C8
S11304B00C4800E000BF02F08FFB2000290000F090
S11304C095F802F073FBC046000008000006002007
S11304D0000000000000000064FEFF1FD8FEFF1FA4
S11304E0000000000000000072B602F043FB02F0BE
S11304F0DDFA62B6FFF7BCFF00480047F9040000CC
S11305000F4B104A4021985882B0014399500E4A2B
S11305108021490299500D4B02221A706B46063312
S113052000221A801A880A498A4206D81A88013297
S113053092B21A801A888A42F8D902B07047C0462B
S11305400070044004100000441000000040064005
S11305500F270000084B01225A705122DA700B2237
S11305609A70997982B06A46C9B2D1711B78DBB2AC
S1130570D37102B07047C0460060074010B572B630
S1130580144B8022D200DA60134B144ADC68144BFB
S113059011781B7899421AD013780133DBB24F20BB
S11305A000219842494149420B400E4908784F289E
S11305B007D80D48E4B2C45413700B780133DBB28E
S11305C00B70044B8022D200DA6062B610BD13783F
S11305D0DBB2E4E740F00F4000400540D4FEFF1FCB
S11305E080FEFF1FD5FEFF1F84FEFF1F70B582B083
S11305F0FFF786FF404B414A80249958E400214389
S1130600995099588025AD00294399503C4A80213E
S11306109858C90301439950FFF79CFF394BC022F6
S1130620196A920011431962596AE0260A435A6210
S1130630354B76015A692A435A619D60334B8022B7
S1130640996A5200324D0A439A626B6923436B6183
S1130650304B6C60019301F047FF80220821520463
S1130660002000F0C3F804210422012000F0BEF8A9
S1130670002101AA012000F057F90C2101AA002051
S113068000F052F908210022002000F0AFF8002108
S1130690214A012000F0AAF8002101AA012000F05B
S11306A043F901AA0C21002000F03EF91B491C4823
S11306B000F0E4FD1B4B1C491A681C4801F074FB54
S11306C01A490F2000F05CFF19490E2000F058FF72
S11306D01849134800F0D2FD2A1C211C2025164B72
S11306E09460013B002BFCD15160136908481D4202
S11306F0F5D186604660F2E70070044038100000CF
S1130700341000000090044000F00F4000A00440AA
S113071040F00F40785634124200000303005FA0FB
S1130720F0ED00E0B82C0000382C000000FEFF1FA4
S113073001FEFF1F00005FA020A1070030B526497D
S113074085B00B2301908B708B792022DBB202934E
S11307500B781A42FCD0204A002401AD5F212B5DA6
S1130760937113788B43A02BFBD11B4B01349B79E2
S1130770DBB20293042CF2D11849194A8023039066
S1130780D15003AB6A46517B1A780F2051406A4618
S11307900E32127851406A460F32127851400A09DB
S11307A001404A401A700F4B9B5C80225200002B80
S11307B00FD10D4B9A600C4B8022596952000A43A9
S11307C05A6180229200DA60BFF34F8FDA6005B07D
S11307D030BD054B5A60EEE700600740400100035E
S11307E000900440C42C000000F00F40F0B54D46CA
S11307F05F4656464446F0B40C231940031C581E69
S113080083410B4387B05B0081241C4303925A0845
S11308103E4B33209A5C3E4B520199463D4B144368
S11308206E4680253C4F3D4A029020219C46347000
S11308306D0080204C460B263C509E709879C0B2C7
S1130840059018780142FCD06846047860468471AB
S11308505F241878A043A028FBD16646B079802491
S1130860C0B2059080204000506050692843506118
S11308702B48385180208000D0605669294C26408E
S11308805661D060BFF34F8F1669D060B346BFF393
S11308904F8FD060BFF34F8F1469D060A046BFF371
S11308A04F8FD060BFF34F8F16695C46B246464601
S11308B02C402E40240A360A7600A4003443A04675
S11308C054462C40240A46462643B046D060BFF323
S11308D04F8F80244E46D060D0603E51D060404659
S11308E002280DD1029C013CE4B20294002CA0D158
S11308F0404607B03CBC90469946A246AB46F0BD84
S11309000428F5D10398FFF719FFF1E7C42C000080
S113091000030003006007400090044000F00F4013
S113092040010003FFFEFFFFF0B55F4656464D460B
S11309304446F0B40C23194087B0019249000423C3
S1130940002800D006230B43DBB27B485A08825CA4
S113095081241C4352017949794B1443794A8C46CA
S1130960332720219846A146774E0B2064468025E4
S1130970665198709879C0B2049018780142FCD0FE
S11309804D464446A5715F2518786D4CA843A028B0
S1130990FAD14646B0798025C0B204908020400048
S11309A0506050696D002843684E50618025604650
S11309B0465180208000D0605669B246644E554648
S11309C02E405661D060BFF34F8F1669D060B34696
S11309D0BFF34F8FD060BFF34F8F1569D060AA4625
S11309E0BFF34F8FD060BFF34F8F16695D460096FB
S11309F08026760035402D0AAD00AB46554635407D
S1130A002D0A6D005E462E43B246009D8026760078
S1130A1035402D0A56462E43B246D060BFF34F8F61
S1130A20D060042E14D0484E64468025D0606651B0
S1130A30D0605046022803D1013FFFB2002F93D16A
S1130A40504607B03CBC90469946A246AB46F0BD22
S1130A5003233D49394AA3708023D15023785BB2E4
S1130A60002B04DAA37923785BB2002BFADB344B36
S1130A7000229A711A1C1178314B49B20029FADA12
S1130A809A7969460A7200229A711A1C11782C4BC1
S1130A9049B20029FADA99796A46517200229A71A8
S1130AA01A1C1178264B49B20029FADA99796A4658
S1130AB0917200229A711A7852B2002AFBDA204B02
S1130AC022489A796B46DA72029B019A0593136065
S1130AD01C4B1F4A59690A4018495A6180228850A0
S1130AE06A46517D05AA1278186951406A46163241
S1130AF0127851406A46173212784A4080218900A0
S1130B00D960BFF34F8FD960C3050F2011090A4C78
S1130B1002404A40A25CDB0F9A4201D00225AA4659
S1130B2006480C4B802143508022064B0A4C92000D
S1130B30DA604450DA6083E7C42C0000009004407B
S1130B400060074000F00F40000300034001000371
S1130B50FFFEFFFF400100020003000170B53B49A6
S1130B603B4A8023D1503B490B238B708B7984B053
S1130B70DBB2019320220B781A42FCD0364E354961
S1130B80F51D341C5F2023788B710B78314A834325
S1130B90A02BFAD193790134DBB20193AC42F2D1A8
S1130BA00B23937093792020DBB2029313782949A5
S1130BB01842FBD0E7238B715F200B78254A8343CF
S1130BC0A02BFAD19379101CDBB202939E2393716C
S1130BD05F2103781F4A8B43A02BFAD193792021FC
S1130BE0DBB202930B2393709379DBB203931378F4
S1130BF01942FCD0174A301C5F2103789371137893
S1130C008B43A02BFBD1134B01309B79DBB20393B5
S1130C10A842F2D111490E4A8023D150104B8022B0
S1130C2052009A6059690A435A6180229200DA603C
S1130C30BFF34F8FDA60DA60BFF34F8FDA60DA60A8
S1130C40BFF34F8FDA6004B070BDC04600030003E9
S1130C500090044000600740BC2C000040010003E9
S1130C6000F00F40F0B556465F464D464446F0B49A
S1130C70BE4B8022BE4992469B46BE4ABE4B87B0BD
S1130C8033268C46202065465C4655440B272C6051
S1130C909F709979C9B2039119780842FCD0B6497A
S1130CA0732464428C715F271C78B349BC43A02C25
S1130CB0FAD18C7980256D00E4B2039455605469AF
S1130CC067462C435461AD4C57443C608024A400D7
S1130CD0D4605569A846AA4D47463D405561D46045
S1130CE0BFF34F8F1569D460A946BFF34F8FD4600B
S1130CF0BFF34F8F1769D460B846BFF34F8FD460EA
S1130D00BFF34F8F15694F46019580256D002F4025
S1130D103F0ABF00B94647462F403F0A7F004D4671
S1130D203D43A846019F80256D002F403F0A45465C
S1130D302F43D460BFF34F8FD460042F12D08B495C
S1130D4065465544D4602960D460022F03D1013E26
S1130D50F6B2002E97D107B03CBC90469946A24605
S1130D60AB46F0BD03238148814A8B708023D05069
S1130D700B78B9465BB2002B04DA8B790B785BB243
S1130D80002BFADB7C4B00229A711A1C11787A4BE7
S1130D9049B20029FADA9A796E46327200229A71BF
S1130DA01A1C1178744B49B20029FADA99796A4607
S1130DB0517200229A711A1C11786F4B49B20029A2
S1130DC0FADA99796A46917200229A711A7852B2C3
S1130DD0002AFBDA684B6A499A796B46DA72029BFD
S1130DE0644A04935069654C014061485161802113
S1130DF0445004A96846447C08780F25444068465A
S1130E00123000784440684613300078444020098A
S1130E102C4060400870802189001469D160BFF3C0
S1130E204F8FD1605749E205095CD20F914201D03E
S1130E300227B9464E4C54498022A15080204D4986
S1130E40524D8000C860A550C8604946042900D0AE
S1130E5081E71A4200D080E0102000229C0700D4D1
S1130E60101CDD0673D502221043C0B29E0602D5C3
S1130E7004231843C0B23D4B802233219346984645
S1130E803C4A3D4B8C462021394C46465D460B2757
S1130E9066519F709C79E4B205941C782142FCD081
S1130EA0354C7F256D42A5715F261C78B443A02C78
S1130EB0FBD1314C8026A4797600E4B205945660C7
S1130EC054692B4F344354612C4C5D467C5180242F
S1130ED0A400D46056692A4F37405761D460BFF3E9
S1130EE04F8F1669D460BFF34F8FD460BFF34F8F19
S1130EF01769D460B946BFF34F8FD460BFF34F8FE7
S1130F0080277F003E40360AB600B2464E463E4039
S1130F10360A7600574615693743802676002E40F8
S1130F20360A3743B946D460BFF34F8F104D474656
S1130F305E46D460D460AF51D4604C46022C0FD1CD
S1130F406446013CE4B2A446002C9DD103E79F060D
S1130F508ED4002800D1FEE68DE7182008227DE714
S1130F60042C00D0F7E6FFF7E9FBF4E600030003E6
S1130F700090044000F00F4000600740400100036F
S1130F80FFFEFFFFC42C000040010002000300012B
S1130F90F0B55F46444656464D46F0B4B14A87B074
S1130FA08021019090463320AF4BB04A8B46844653
S1130FB02021AF4C46465D460B2766519F709879B9
S1130FC0C0B2039018780142FCD0A7487F24644241
S1130FD084715F261878A44CB043A028FAD1A07974
S1130FE080256D00C0B2039055605069A04E28431F
S1130FF05061A0485F46F05180208000D060556960
S11310009D4F2F405761D060BFF34F8F1769D06059
S1131010BFF34F8FD060BFF34F8F1569D060A946DF
S1131020BFF34F8FD060BFF34F8F3E1C80277F00EC
S11310303E40360AB600B2464E463E40360A760078
S1131040574615693743802676002E40360A3743C3
S1131050B946D060BFF34F8F854D47465E46D0609A
S1131060D060AF51D0604846022807D160460138AD
S1131070C0B2844600289CD1022002E048460428DD
S113108006D007B03CBC90469946A246AB46F0BD9C
S11310901620FFF753FB8022724B33219246734A8A
S11310A09B468C462023724D5F4656460B20AF511B
S11310B0A070A179C9B2049121780B42FCD06A498D
S11310C04F256D428D715F262178674DB143A0296C
S11310D0FAD1A97980267600C9B204915660516983
S11310E0634F31435161634950463950802189002F
S11310F0D1605669604F37405761D160BFF34F8F5D
S11311001669D160BFF34F8FD160BFF34F8F17695A
S1131110D160B846BFF34F8FD160BFF34F8F8027A4
S11311207F003E40360AB600B14646463E40360A87
S113113076004F4610693743802676000640360A0B
S11311403743B846D160BFF34F8F49485F46564690
S1131150D160D16087514046D160022807D16146F1
S11311600139C9B28C4600299DD1022089E7404645
S1131170042800D085E70020FFF7E0FA39490B2264
S11311808C463B4E8021394B3327934649005A46BF
S1131190604680243051AA70AA79D2B205922A7886
S11311A020241442FBD03048752252425F248271BD
S11311B0A0462A7840468243A02AFAD12A4A8024AB
S11311C09279D2B20592802252005A605A690A4337
S11311D05A61284A325180229200DA605869264CBA
S11311E020405861DA60BFF34F8F1869DA60824695
S11311F0BFF34F8FDA60BFF34F8F1C69DA60A146EB
S1131200BFF34F8FDA60BFF34F8F1869544680469F
S113121048460C400840240A000A4000A400044345
S1131220A14644460C40240A484620438146DA60DD
S1131230BFF34F8F80246046DA60DA603051DA60A1
S11312404A46022A05D1013FFFB2002F9FD1022056
S113125017E7042A01D0484613E70198FFF76EFA0E
S113126004200EE7000300030060074000F00F4075
S11312700090044040010003FFFEFFFFF0B55F460D
S113128056464D464446F0B487B00191FFF780FEC0
S1131290C3B2042B08D0FF23184007B03CBC9046CF
S11312A09946A246AB46F0BDAC490B22802093463A
S11312B0AB4BAC4A8C46332782462021AA4C584675
S11312C066465546665198709879C0B2039018786E
S11312D00142FCD0A2484524644284715F251878F9
S11312E0A843A028FBD19E48802580796D00C0B218
S11312F00390556050699C4E284350619B48544666
S1131300305180208000D0605569994E2E4056613E
S1131310D060BFF34F8F1569D060BFF34F8FD0609B
S1131320BFF34F8F1669D060B046BFF34F8FD060C4
S1131330BFF34F8F8026760035402D0AAD00A946B5
S1131340454635402D0A6D004E4614692E438025CE
S11313506D0025402D0A2E43B046D060BFF34F8F59
S1131360814C66465546D060D0606651D060404698
S1131370022800D0E9E0013FFFB2002F9ED17A4A53
S11313808023764C94469A46764A754B3326A34678
S1131390202067460B215D4657443D60997099793A
S11313A0C9B2049119780842FCD06D497924644289
S11313B08C715F271C786A49BC43A02CFAD18C79C4
S11313C080256D00E4B204945560546967462C434B
S11313D05461664C57443C608024A400D460556931
S11313E0A846634D47463D405561D460BFF34F8FD7
S11313F01569D460A946BFF34F8FD460BFF34F8FF4
S11314001769D460B846BFF34F8FD460BFF34F8FD2
S113141015694F46019580256D002F403F0ABF0096
S1131420B94647462F403F0A7F004D463D43A846F4
S1131430019F80256D002F403F0A45462F43D4600D
S1131440BFF34F8FD460042F0DD0444965465544F3
S1131450D4602960D460022F7ED1013EF6B2002E02
S113146097D1022019E703233C483F4A8B7080231D
S1131470D0500B785BB2002B04DA8B790B785BB21B
S1131480002BFADB364B00229A711A1C1178344B6C
S113149049B20029FADA9A796E46327200229A71B8
S11314A01A1C11782E4B49B20029FADA99796A4646
S11314B0517200229A711A1C1178294B49B20029E1
S11314C0FADA99796A46917200229A711A7852B2BC
S11314D0002AFBDA224B25489A796B46DA72029F7E
S11314E0204B05975969224A0A401F495A618022B4
S11314F088506A46517D05AA1278186951406A4697
S11315001632127851406A46173212784A408021C6
S11315108900D960BFF34F8FD960C3050F2011092B
S113152002404A401349DB0F8A5C02209A4200D1F0
S113153004200D4C104B802163508022094B0F4D29
S11315409200DA606550DA60A7E6042800D016E756
S11315500198FFF7F3F812E7381C9EE60003000336
S11315600060074000F00F40009004404001000379
S1131570FFFEFFFFC42C0000400100020003000135
S1131580F0B55F4656464D464446F0B495B00390D8
S1131590CA480291FFF7FCFCC0B2042800D11CE148
S11315A00299C748FFF76AFE039C1F23802123404A
S11315B049021943C348FFF761FE08E0FF231840BE
S11315C0C3B2022B00D081E0029EF6037ED4BB4856
S11315D0FFF7DEFCC3B2042BF0D1BB4D0B208027F8
S11315E0BA4BBB4A83463326AC46BA462020B94997
S11315F0644654445D4621609D709979C9B2109146
S113160019780842FCD0B14961277F428F715F2766
S11316101C78AE49BC43A02CFAD18C798025E4B265
S1131620109480246400546054696D002C43546108
S11316306746A94C57443C608024A400D460556993
S1131640A846A64D47463D405561D460BFF34F8F31
S11316501569D460A946BFF34F8FD460BFF34F8F91
S11316601769D460B846BFF34F8FD460BFF34F8F70
S113167015694F46039580256D002F403F0ABF0032
S1131680B94647462F403F0A7F004D463D43A84692
S1131690039F80256D002F403F0A45462F43D460A9
S11316A0BFF34F8FD460042F17D08A496546554441
S11316B0D4602960D460022F00D0F7E2013EF6B274
S11316C0002E94D10220029EF60380D515B03CBCB6
S11316D090469946A246AB46F0BD0323B9467A4AE2
S11316E07C4F8B708023D7500B785BB2002B04DACD
S11316F08B790B785BB2002BFADB744B00229A7166
S11317001A1C1178714B49B20029FADA997908AA9E
S1131710117000229A711A1C11786C4B49B200297D
S1131720FADA99796A462132117000229A711A1CE8
S11317301178664B49B20029FADA99796A4622325D
S1131740117000229A711A7852B2002AFBDA5F4BA8
S113175061489A796B4623331A70089E5C4B119644
S113176059695E4A02960A4057495A618022885054
S1131770694611AA4531087811780F244840694612
S1131780463109784840694647310978484001099B
S1131790204041401170802292001869DA60BFF342
S11317A04F8F4F4FDA607A5CC305B846DB0F9A421D
S11317B001D002218946444F4A4B8022BB50444801
S11317C0802349499B00C360B9504A46C360042A38
S11317D000D172E148464B46F3E63E4A332080216D
S11317E093468025394A3A4B84468A4620246D0024
S11317F03848354E0B215746F05191709179C9B252
S11318000C9111780C42FCD03049612676428E71DD
S11318105F2610782D49B043A028FAD18879802713
S1131820C0B27F000C905F605869274E284358610E
S113183029485746F05180208000D8605E69274FC0
S113184037405F61D860BFF34F8F1F69D860B946D6
S1131850BFF34F8FD860BFF34F8F1E69D860B04677
S1131860BFF34F8FD860BFF34F8F1F694E46019768
S113187047462E402F40360A3F0A7F00B6003E43BB
S1131880B046019E47462E40360A3743B846D860D4
S1131890BFF34F8FD860042F28D00B495F465646BC
S11318A0D8608F51D8604046022800D078E661465F
S11318B00139C9B28C4600299AD171E6F0ED00E0F5
S11318C0F8ED00E0F4ED00E0009004400060074013
S11318D000F00F400003000340010003FFFEFFFF80
S11318E0C42C000040010002000300010323AA48A5
S11318F0AA4A8B708023D0500B78B9465BB2002B78
S113190004DA8B790B785BB2002BFADBA44B002250
S11319109A711A1C1178A24B49B20029FADA9A7901
S113192069460A7400229A711A1C11789C4B49B2B8
S11319300029FADA99796A46517400229A711A1CBC
S11319401178974B49B20029FADA99796A46917469
S113195000229A711A7852B2002AFBDA904B91480D
S11319609A796B46DA74049A8F4B0D9259698F4AAF
S11319700F240A4089495A618022885069460DAA79
S1131980353108781178484069463631097848403D
S113199069463731097848400109204041401170B7
S11319A0802292001869DA60BFF34F8FDA60804AB0
S11319B0C305525CDB0F9A4201D002239946774E4D
S11319C07C4B802173508022774B7B4892004C469D
S11319D0DA607050DA60042C00D0E1E56E4D8020AE
S11319E06F4C3327AC46AB4640006C4E5A468021C0
S11319F00B257250A570A279D2B20E9222782026BD
S1131A001642FBD0664A4321494291715F229046B7
S1131A10227845466249AA43A02AF9D18A798026C8
S1131A20D2B276000E925E605A695C4D02435A61EE
S1131A305C4A8026AA5180229200DA605D695B4E7E
S1131A4035405D61DA60BFF34F8F1D69DA60AA46E5
S1131A50BFF34F8FDA60BFF34F8F1E69DA60B14670
S1131A60BFF34F8FDA60BFF34F8F1D695646A84608
S1131A704D4606400540360A2D0A6D00B6002E4339
S1131A80B14646460640360A4D463543A846DA6016
S1131A90BFF34F8FDA60042D00D10CE13F4E654651
S1131AA08021DA6075504646DA60022E00D077E570
S1131AB0013FFFB2002F98D172E533239C46802466
S1131AC08025374BA34620216D00334A334E5F46B1
S1131AD00B24F2519C709A79D2B212921A78114264
S1131AE0FCD02F4A4326764296715F261C782C4AF6
S1131AF0B443A02CFAD194798027E4B27F001294E5
S1131B0047604469254E2C434461264C5F46F4519A
S1131B108024A400C4604669244F37404761C460F0
S1131B20BFF34F8F0769C460BA46BFF34F8FC460D9
S1131B30BFF34F8F0669C460B146BFF34F8FC460D3
S1131B40BFF34F8F0769564603974F462E402F40E9
S1131B50360A3F0A7F00B6003E43B146039E4F4615
S1131B602E40360A3743B946C460BFF34F8FC46072
S1131B70042F23D0094A084F5E46C46097514A4651
S1131B80C460022A00D025E66246013AD2B29446E5
S1131B90002A9AD1022096E5000300030090044035
S1131BA0006007404001000300F00F40FFFEFFFF0C
S1131BB0C42C000040010002000300010323724909
S1131BC0724893708023C85013785BB2002B04DAF8
S1131BD0937913785BB2002BFADB6D4B00229A7178
S1131BE01A1C11786A4B49B20029FADA99790AAABF
S1131BF0117000229A711A1C1178654B49B20029A0
S1131C00FADA99796A462932117000229A711A1CFB
S1131C1011785F4B49B20029FADA99796A462A3277
S1131C20117000229A711A7852B2002AFBDA584BCA
S1131C3058489A796B462B331A700A9C564B139466
S1131C405969564A02940A404F495A618022885081
S1131C50694613AA4D31087811780F244840694623
S1131C604E310978484069464F31097848400109A6
S1131C70204041401170802292001869DA60BFF35D
S1131C804F8F4546DA606A5CC305DB0F9A420FD179
S1131C90042304203C4D424A80242A5180213E4A98
S1131CA0404E8900D1602E51D1608AE4B94691E555
S1131CB002230220EEE703233448334A8B70802347
S1131CC0D0500B785BB2002B04DA8B790B785BB2C3
S1131CD0002BFADB2E4B00229A711A1C11782C4B24
S1131CE049B20029FADA997906AA117000229A7188
S1131CF01A1C1178264B49B20029FADA99796A46F6
S1131D00517600229A711A1C1178214B49B200298C
S1131D10FADA99796A46917600229A711A7852B25F
S1131D20002AFBDA1A4B18489A796B46DA76069F32
S1131D30194B0F975969194A6C460A405A61154A5A
S1131D40802142503D340FAA257814780F2665402F
S1131D506C463E34247865406C463F3424786C40AD
S1131D60250934406C4014701A6980229200DA60AC
S1131D70BFF34F8F0A4CDA6044500A4CDA60445087
S1131D80DA60FFF70DFCC046009004400003000336
S1131D90006007404001000300F00F40FFFEFFFF1A
S1131DA04001000200030001F0B55F4656464D466F
S1131DB04446F0B495B004910592FFF7E9F8C3B234
S1131DC0042B08D0FF23184015B03CBC904699461C
S1131DD0A246AB46F0BDA94AA94880219346A94B27
S1131DE0A94A844633268A462020A44C6546554495
S1131DF00B272C609F709979C9B20D91197808420C
S1131E00FCD0A049792464428C715F271C789D49D9
S1131E10BC43A02CFAD18C7980256D00E4B20D94DA
S1131E205560546967462C435461984C57443C6050
S1131E308024A400D4605569A846954D47463D408A
S1131E405561D460BFF34F8F1569D460A946BFF3C1
S1131E504F8FD460BFF34F8F1769D460B846BFF378
S1131E604F8FD460BFF34F8F15694F46029580257D
S1131E706D002F403F0ABF00B94647462F403F0A36
S1131E807F004D463D43A846029F80256D002F40AC
S1131E903F0A45462F43D460BFF34F8FD460042FCD
S1131EA000D181E0654659465544D4602960D46028
S1131EB0022F03D1013EF6B2002E96D16F4A70482C
S1131EC0802193466F4B704A844633268A462020ED
S1131ED06A4C654655440B272C609F709979C9B2AA
S1131EE00F9119780842FCD06649432464428C71EE
S1131EF05F271C786349BC43A02CFAD18C798025D8
S1131F006D00E4B20F945560546967462C435461E4
S1131F105E4C57443C608024A400D4605569A846B4
S1131F205B4D47463D405561D460BFF34F8F156903
S1131F30D460A946BFF34F8FD460BFF34F8F1769A6
S1131F40D460B846BFF34F8FD460BFF34F8F156989
S1131F504F46029580256D002F403F0ABF00B946C9
S1131F6047462F403F0A7F004D463D43A846029F07
S1131F7080256D002F403F0A45462F43D460BFF3B0
S1131F804F8FD460042F00D188E0654659465544EC
S1131F90D4602960D460022F00D095E2013EF6B2ED
S1131FA0002E95D102200FE703233448344A8B7066
S1131FB08023D0500B785BB2002B04DA8B790B783A
S1131FC05BB2002BFADB2F4B00229A711A1C11789A
S1131FD02C4B49B20029FADA9A790AAE32700022FF
S1131FE09A711A1C1178274B49B20029FADA9979A7
S1131FF06A462932117000229A711A1C1178214BF9
S113200049B20029FADA99796A462A321170002213
S11320109A711A7852B2002AFBDA1A4B18489A7944
S11320206B462B331A700A9F174B0E975969184A3F
S11320306C460A405A61154A8021425039340EAA2E
S1132040257814780F2665406C463A342478654028
S11320506C463B3424786C40250934406C40147041
S11320601A6980229200DA60BFF34F8F094CDA605C
S11320704450094CDA604450DA601FE7000300035F
S1132080009004400060074000F00F40400100034E
S1132090FFFEFFFF40010002000300010323744818
S11320A0744A8B708023D0500B78B9465BB2002BF6
S11320B004DA8B790B785BB2002BFADB6E4B0022CF
S11320C09A711A1C11786C4B49B20029FADA997981
S11320D00CAA117000229A711A1C1178664B49B22D
S11320E00029FADA99796A463132117000229A711C
S11320F01A1C1178604B49B20029FADA99796A46B8
S11321003232117000229A711A7852B2002AFBDA24
S1132110594B5A489A796B4633331A700C9E584B74
S113212010965969574A03960A4052495A618022C7
S11321308850694610AA4131087811780F24484024
S11321406946423109784840694643310978484034
S11321500109204041401170802292001869DA6020
S1132160BFF34F8FDA60484AC305525CDB0F9A42D3
S113217001D00227B9463F4E444B80217350404A58
S1132180434880239B00D36070504846D3600428A2
S113219001D0484618E6364B80219C460B24364B2A
S11321A033278A46A3462020324D614656465C4674
S11321B0A9519C709979C9B2119119780842FCD03F
S11321C02D495D256D428D715F251978A943A0299C
S11321D0FBD12949802689797600C9B211915660CC
S11321E05169244C31435161244955466151802140
S11321F08900D1605669B046224E44462640566155
S1132200D160BFF34F8F1569D160BFF34F8FD16099
S1132210BFF34F8F1669D160B046BFF34F8FD160C3
S1132220BFF34F8F8026760035402D0AAD00A946B6
S1132230454635402D0A6D004E4614692E438025CF
S11322406D0025402D0A2E43B046D160BFF34F8F59
S1132250084C66465546D160D1606651D16041460E
S1132260022917D1013FFFB2002F9DD115E0C046CE
S11322700003000300900440006007404001000395
S113228000F00F40FFFEFFFFC42C000040010002DD
S113229000030001042900D110E1049D059E02956C
S11322A0002E7ED08A4F029C2478029D0694029EC2
S11322B0029C6D78B678E47886480795BB21802522
S11322C0854B089609943326AA46844620228B46D9
S11322D0824C0B21604655466051B970B979C9B238
S11322E0129139780A42FCD079495C468C715F249A
S11322F03978A143A029FBD17549802589796D00DE
S1132300C9B212915D60596974482943596174498D
S11323105446015180218900D9605D69A846714DF8
S1132320404605405D61D960BFF34F8F1C69D96099
S1132330BFF34F8FD960BFF34F8F1D69D960A84693
S1132340BFF34F8FD960BFF34F8F80256D002C40B2
S1132350240AA400A14644462C40240A64004D46A5
S113236018692543802464000440240A2543A846B0
S1132370D960BFF34F8F594865465446D960D96038
S113238005514046D960022877D1013EF6B2002EAD
S11323909ED1029C049D059E04340294631B9E42BC
S11323A082D80B224B4980209346494B4A4A8246A5
S11323B033278C4620204949654654465E460D51D4
S11323C09E709979C9B2139119780842FCD040499A
S11323D05D2464428C715F251978A943A029FBD13F
S11323E03B49802589796D00C9B2139155605169C3
S11323F03A4E294351613A4954463151802189006A
S1132400D1605569374E2E405661D160BFF34F8F6E
S11324101569D160BFF34F8FD160BFF34F8F166939
S1132420D160B046BFF34F8FD160BFF34F8F80268A
S1132430760035402D0AAD00A946454635402D0AA3
S11324406D004E4614692E4380256D0025402D0AEB
S11324502E43B046D160BFF34F8F204C664655469D
S1132460D160D1606651D160414602291DD1013F3E
S1132470FFB2002F9FD10220A6E4042889D1089C32
S1132480079A2304069D099E100218432843330625
S11324901843FEF753F9029C049D059E04340294EC
S11324A0631B9E4200D9FFE67BE7C146042900D0A6
S11324B06FE60398FEF742F9042085E4039C10209C
S11324C02043FEF73BF9E8E6B94648467CE4C046BB
S11324D0006007400003000300F00F400090044038
S11324E040010003FFFEFFFFF0B55F4656464D4630
S11324F04446F0B4E0488DB08346FEF72FFB8022BB
S1132500DE499246DE4BDF4A33268C462020654660
S11325105C4655440B272C609F709979C9B206918B
S113252019780842FCD0D6495B2464428C715F2739
S11325301C78D349BC43A02CFAD18C7980256D003A
S1132540E4B206945560546967462C435461CE4CFA
S113255057443C608024A400D4605569A846CB4D00
S113256047463D405561D460BFF34F8F1569D46031
S1132570A946BFF34F8FD460BFF34F8F1769D46060
S1132580B846BFF34F8FD460BFF34F8F15694F46E2
S1132590009580256D002F403F0ABF00B94647468D
S11325A02F403F0A7F004D463D43A846009F8025AB
S11325B06D002F403F0A45462F43D460BFF34F8F31
S11325C0D460042F75D0AC4965465544D460296065
S11325D0D460022F03D1013EF6B2002E97D18021A0
S11325E03320A74BA74A8A4684462021A34C5E4643
S11325F055460B2766519F709879C0B20890187899
S11326000142FCD09E487F24644284715F2618787E
S11326109B4DB043A028FAD1A87980267600C0B299
S1132620089056605069954F30435061964854461F
S1132630385180208000D0605669944F37405761EC
S1132640D060BFF34F8F1669D060BFF34F8FD06057
S1132650BFF34F8F1769D060B846BFF34F8FD06078
S1132660BFF34F8F80277F003E40360AB600B14645
S113267046463E40360A76004F4614693743802664
S113268076002640360A3743B846D060BFF34F8FF2
S11326907A4C5F465646D060D060A751D060404621
S11326A002286DD160460138C0B2844600289DD10D
S11326B023E70323714A704C8B708023D4500B782A
S11326C05BB2002B04DA8B790B785BB2002BFADB5C
S11326D06B4B00229A711A1C1178694B49B200297C
S11326E0FADA9A796E46327200229A711A1C1178BB
S11326F0634B49B20029FADA99796A465172002289
S11327009A711A1C11785E4B49B20029FADA997948
S11327106A46917200229A711A7852B2002AFBDA40
S1132720574B56489A796B46DA72029F554B079776
S11327305969564A01970A405A61534A80214250C6
S11327406C4607AA657F14780F2665406C461E34D4
S1132750247865406C461F3424786C402509344045
S11327606C4014701A6980229200DA60BFF34F8FB4
S1132770474CDA604450474CDA604450DA602EE744
S1132780042800D0B9E61620FDF7D8FF019C424B7F
S11327902205120D9A4200D0AFE62F1C3648802540
S11327A0A921384B3326AA46844620228B46334C33
S11327B00B21604655466051B970B979C9B2099187
S11327C039780A42FCD02E495C468C715F243978F2
S11327D0A143A029FBD12A49802589796D00C9B27A
S11327E009915D6059692548294359612649544630
S11327F0015180218900D9605D69A846234D404676
S113280005405D61D960BFF34F8F1C69D960BFF388
S11328104F8FD960BFF34F8F1D69D960A846BFF3AE
S11328204F8FD960BFF34F8F80256D002C40240A51
S1132830A400A14644462C40240A64004D4618696D
S11328402543802464000440240A2543A846D96013
S1132850BFF34F8F094865465446D960D960055186
S11328604046D960022819D1013EF6B2002E9ED10D
S1132870FEF7F8F992E7C046000300030090044015
S11328800060074000F00F4040010003FFFEFFFF1F
S11328904001000200030001770400000428E7D18E
S11328A080204005FDF74AFF774C8023774A9A46FB
S11328B0774B33259446A3462021734E60460B2262
S11328C050440660BA70BA79D2B20A923A78114288
S11328D0FCD0704A7324644294715F2638786D4A40
S11328E0B043A028FAD1907980267600C0B20A902D
S11328F05E605869644630435861674854442060B8
S113290080208000D8605E69644C34405C61D8608B
S1132910BFF34F8F1C69D860A146BFF34F8FD860B7
S1132920BFF34F8F1E69D860B046BFF34F8FD86096
S1132930BFF34F8F1C694E460194802464002640E7
S1132940360AB600B14646462640360A76004C465C
S11329503443A046019E802464002640360A44463F
S11329602643D860BFF34F8FD860042E0DD0644641
S11329705A465444D8602260D860022E00D00DE735
S1132980013DEDB2002D98D108E703233E483F49AD
S113299093708023C8501378B1465BB2002B04DADD
S11329A0BB793B785BB2002BFADB0023BB713A782E
S11329B0384B52B2002AFADA9A796D462A74002208
S11329C09A713A78334B52B2002AFADA9A796E46FF
S11329D0727400229A713A782E4B52B2002AFADAB3
S11329E09A796846827400229A713B785BB2002B14
S11329F0FBDA284B69469B79274CCB74049A244B09
S1132A000B92586925490BAD01402048596180213A
S1132A1044502D246C44297820782E266E44484056
S1132A202F2431786C44484021780F244840010910
S1132A30204041408020297080001C69D860BFF389
S1132A404F8F174DD860695CE305DB0F994201D0C5
S1132A500226B1460D4C134B8020235080210C4B91
S1132A60114D8900D96025504846D960042800D00A
S1132A7094E6910000D491E600200DB03CBC904651
S1132A809946A246AB46F0BD000300030090044003
S1132A9000F00F400060074040010003FFFEFFFF0D
S1132AA0C42C0000400100020003000180B588B07E
S1132AB000AF274BFB60274A274B9A4216D00023CE
S1132AC0FB610AE0244BFA699200D158214BFA6960
S1132AD09200D150FB690133FB61FB689A08FB69E2
S1132AE09A42EFD81D4B1B4A9A6002E01B4B1A4ACC
S1132AF09A601B4BBB611B4B7B611B4BBB60BA6871
S1132B007B69D31AFB6107E0BB695A1CBA617A6915
S1132B10511C796112781A70FB695A1EFA61002BF4
S1132B20F2D1124B3B61124B7B607A683B69D31A3A
S1132B30FB6104E03B695A1C3A6100221A70FB698C
S1132B405A1EFA61002BF5D1BD4608B080BDC046BF
S1132B5000000000000000000000000000ED00E0A4
S1132B6000FEFF1F042D0000682D000064FEFF1FFF
S1132B70D8FEFF1F80B500AF0A4B9B78DBB21A1C4E
S1132B800823134007D0074B064A9278D2B2082193
S1132B900A43D2B29A70044A88235B010021D150BF
S1132BA0BD4680BD00D0074000700440084B10B5FE
S1132BB0041C002B02D0002100E000BF054B186864
S1132BC0836A002B00D09847201C00F033F8C046DD
S1132BD000000000D82C000070B50E4B0E4D0024F0
S1132BE0ED1AAD101E1CAC4204D0A300F358984754
S1132BF00134F8E700F072F8084B094D0024ED1A8F
S1132C00AD101E1CAC4204D0A300F3589847013405
S1132C10F8E770BDFC2C0000FC2C0000FC2C00002C
S1132C20002D0000031C8218934202D01970013356
S1132C30FAE77047FEE7C0461B488021C9000268D6
S1132C401143016019480168802252001143016058
S1132C504160C16016484169B0229201426011434B
S1132C6041618021C900816000F013F8416000F0E7
S1132C7010F84900816000F00CF8416000F009F898
S1132C808900816000F005F8416000F002F8C9088D
S1132C90E9E7084D0024013DA542FCD1F746C046B2
S1132CA0C046C046C046C0463880044028A0044000
S1132CB040F00F4050C3000080000000FFFFFFFF02
S1132CC0FFFFFF00000101000100000101000001FD
S1132CD0000101004300000000FEFF1FF8B5C046DC
S1132CE0F8BC08BC9E467047F8B5C046F8BC08BCA2
S1072CF09E46704741
S10B2CF47CD7FF7F0100000002
S1072CFC3904000093
S1072D0011040000B6
S1132D0400000000000000000000000000000000BB
S1132D1400000000000000000000000000000000AB
S1132D24D42C00000000000000000000000000009B
S1132D34000000000000000000000000000000008B
S1132D44000000000000000000000000000000007B
S1132D54000000000000000000000000000000006B
S1072D640000000067
S90304E90F
